:0C800000F8B500BFF8BC08BC9E467047F5
:10800C0008B50021044600F087F9044B1868C36BCF
:10801C0003B19847204600F0F5F800BFE08400005B
:10802C0008B500F077F800F076F800F075F8FAE78C
:10803C00024B13B1024800F0DBB97047000000009E
:10804C000984000010B5054C237833B9044B13B1E7
:10805C000448AFF300800123237010BD2889010070
:10806C0000000000EC840000084B10B51BB108495F
:10807C000848AFF300800848036803B910BD074BEC
:10808C00002BFBD0BDE81040184700BF00000000DB
:10809C002C890100EC840000FC840100000000002D
:1080AC00154B002B08BF134B9D46A3F5803A0021BE
:1080BC008B460F461348144A121A00F0DFF80F4B88
:1080CC00002B00D098470E4B002B00D09847002077
:1080DC00002104000D000D48002802D00C4800F0CF
:1080EC0087F900F0A3F820002900FFF799FFFFF7AC
:1080FC0087FF00BF00000800000000000000000027
:10810C00000000002889010068890100FD8300003F
:10811C00098400007047704738B51E4C2378002B3B
:10812C0036D10123237000F05FF808B100F03AF863
:10813C0000F04AF808B100F078F800F065F808B1E2
:10814C0000F031F800F030F808B100F06DF80023C1
:10815C002370EFF30583DBB9EFF3108272B60E4D8B
:10816C00286810B10D4C217811B18AB962B638BDAE
:10817C000123237043692B600BB1996101E008491D
:10818C000B6002B962B60025457783689847257065
:10819C0038BD00BF44890100588901005C89010089
:1081AC005489010070477047054B1878054B1A78B5
:1081BC00C0B2D3B2984238BF4030C01A704700BF2B
:1081CC004689010045890100054B1878054B1A7842
:1081DC00C0B2D3B2984238BF4030C01A704700BF0B
:1081EC004889010047890100044B9888044B1A68A0
:1081FC001AB1138852889B1A184470475E89010083
:10820C004C890100FEE70000054B1878054B1A78E5
:10821C00C0B2D3B2984238BF4030C01A704700BFCA
:10822C0051890100508901007047704770B50F4E9D
:10823C000F4D761BB61018BF002405D0013455F82D
:10824C00043B9847A642F9D10A4E0B4D761BFFF71B
:10825C00D1FEB61018BF002406D0013455F8043BEB
:10826C009847A642F9D170BD70BD00BFF0840100E3
:10827C00F0840100F8840100F084010070B48407DC
:10828C0046D0541E002A41D0CDB2034602E0621EF5
:10829C00E4B3144603F8015B9A07F8D1032C2ED9EA
:1082AC00CDB245EA05250F2C45EA054519D903F150
:1082BC0010022646103E0F2E42F8105C42F80C5C61
:1082CC0042F8085C42F8045C02F11002F2D8A4F106
:1082DC00100222F00F0204F00F041032032C13448E
:1082EC000DD91E462246043A032A46F8045BFAD8F6
:1082FC00221F22F003020432134404F003042CB1B5
:10830C00C9B21C4403F8011BA342FBD170BC7047DB
:10831C0014460346C2E700BF2DE9F04F324B85B03F
:10832C001B68029303F5A47301900E460393029B02
:10833C00D3F848713FB3DDF80CA04FF00109D346D8
:10834C007C68651E0ED4013407EB84044FF00008E2
:10835C00E6B1D4F800319E4218D0013D6B1CA4F15B
:10836C000404F5D1214B73B17B68002B36D13B68EB
:10837C00002B34D03846CBF80030AFF30080DBF85C
:10838C000070002FDCD105B0BDE8F08F7B6822684F
:10839C00013BAB420CBF7D60C4F80080002ADCD0EE
:1083AC00D7F88811D7F804A009FA05F30B420FD0BF
:1083BC00D7F88C110B420DD1D4F88010019890474E
:1083CC007B685345B3D1DBF80030BB42C5D0AEE778
:1083DC009047F5E7D4F880009047F1E73B68BB463F
:1083EC001F46002FACD1CEE7E08400000000000057
:1083FC00002301461A46184600F014B838B5074D4C
:10840C00074C2C1BA41005D0013C55F8043D984793
:10841C00002CF9D1BDE8384000F056B8FC840100BE
:10842C00F88401002DE9F047254C2568D5F8484122
:10843C000646884692469946C4B360681F2817DCE6
:10844C00431C76B104EB80050122C5F888A0D4F852
:10845C00881182401143022EC4F88811C5F8089186
:10846C001ED00230636044F820800020BDE8F08705
:10847C00144B03B34FF4C870AFF300800446D0B173
:10848C00D5F84831002780E88800C5F848413846BF
:10849C000123C4F88871C4F88C71002EE1D0D1E7A7
:1084AC00D4F88C110A43C4F88C21DAE705F5A674CC
:1084BC00C5F84841C1E74FF0FF30BDE8F08700BF79
:0884CC00E08400000000000044
:0C84D400F8B500BFF8BC08BC9E4670471D
:0484E0000085010012
:0884E400C8FBFF7F010000004E
:0484EC00000000008C
:020000021000EC
:0884F0003D80000075800000D2
:0484F80051800000AF
:0484FC00000000007C
:1085000000000000EC87010054880100BC880100D5
:10851000000000000000000000000000000000005B
:10852000000000000000000000000000000000004B
:10853000000000000000000000000000000000003B
:10854000000000000000000000000000000000002B
:10855000000000000000000000000000000000001B
:10856000000000000000000000000000000000000B
:1085700000000000000000000000000000000000FB
:1085800000000000000000000000000000000000EB
:1085900000000000000000000000000000000000DB
:1085A00000000000000000000100000000000000CA
:1085B0000E33CDAB34126DE6ECDE05000B0000008F
:1085C00000000000000000000000000000000000AB
:1085D000000000000000000000000000000000009B
:1085E000000000000000000000000000000000008B
:1085F000000000000000000000000000000000007B
:04000003000080ADCC
:00000001FF
