:1000000000800020BD010000D10400009D0400001C
:100010009D0400009D0400009D0400009D0400005C
:100020009D0400009D0400009D040000D104000018
:10003000D10400009D040000D1040000D1040000A0
:10004000D1040000D1040000D1040000D10400005C
:10005000D1040000D1040000D1040000D10400004C
:10006000D1040000D1040000D1040000D10400003C
:10007000D1040000D1040000D1040000D10400002C
:10008000D1040000D1040000D1040000D10400001C
:10009000D1040000D1040000D1040000D10400000C
:1000A000D1040000D1040000D1040000D1040000FC
:1000B000D1040000D1040000D1040000D1040000EC
:1000C000D1040000D1040000D1040000D1040000DC
:1000D000D1040000D1040000D1040000D1040000CC
:1000E000D1040000D1040000D1040000D1040000BC
:1000F000D1040000D1040000D1040000D1040000AC
:10010000D1040000D1040000D1040000D10400009B
:10011000D1040000D1040000D1040000D10400008B
:10012000D1040000D1040000D1040000D10400007B
:10013000D1040000D1040000D1040000D10400006B
:10014000D1040000D1040000D1040000D10400005B
:10015000D1040000D1040000D1040000D10400004B
:10016000D1040000D1040000D1040000D10400003B
:10017000D1040000D1040000D1040000D10400002B
:10018000D1040000D1040000D1040000D10400001B
:10019000D1040000D1040000D1040000D10400000B
:1001A000D1040000D1040000D1040000D1040000FB
:1001B000D1040000D1040000D1040000434B4CF2F4
:1001C000205210B51A804DF628121A8000BF00BFC9
:1001D00000F082F93E4B4FF010621A603D4A9A607F
:1001E0003D4ADA603D4A136813F4807301BF3C490D
:1001F0000B604FF4A85313603A4B1A78110748BFAD
:100200001A78394944BF42F008021A70374B2A2243
:100210001A70374A374B8B4250D3374B374A00213D
:10022000934250D3364A374C0023114654F82300EA
:1002300042F8230001336F2BF8D1334B334A80202F
:1002400003F8010B9342FBD1314B1960314B8A22E9
:100250001A70A3F5805324225A70A0221A709A793A
:100260009207FCD59A79D406FCD42B4B19469A797F
:1002700002F00C02082AFAD103221A7140225A71A4
:100280008B799806FCD5244B9A795206FCD5234AE3
:10029000234911600221516020221A701E4A93796D
:1002A00003F00C030C2BFAD11E4B1F4A1A6000F00E
:1002B0004DF900F017F900F0CFF8FEE752F8040FFF
:1002C00043F8040BA7E743F8041BA9E70E200540F9
:1002D00030800440823F04000100002B10D0034016
:1002E00014D0034002D00740EC85FF1F00E0074018
:1002F000F4090000C081FF1FEC85FF1F2C86FF1F43
:100300000080FF1F0000000000E400E05FE400E068
:1003100008ED00E0005006400040064044800440E4
:100320000000030104800440C0100500FFFFFFFF30
:10033000FFFFFFFFFFFFFFFFFFFFFFFFFFFFFFFFCD
:10034000FFFFFFFFFFFFFFFFFFFFFFFFFFFFFFFFBD
:10035000FFFFFFFFFFFFFFFFFFFFFFFFFFFFFFFFAD
:10036000FFFFFFFFFFFFFFFFFFFFFFFFFFFFFFFF9D
:10037000FFFFFFFFFFFFFFFFFFFFFFFFFFFFFFFF8D
:10038000FFFFFFFFFFFFFFFFFFFFFFFFFFFFFFFF7D
:10039000FFFFFFFFFFFFFFFFFFFFFFFFFFFFFFFF6D
:1003A000FFFFFFFFFFFFFFFFFFFFFFFFFFFFFFFF5D
:1003B000FFFFFFFFFFFFFFFFFFFFFFFFFFFFFFFF4D
:1003C000FFFFFFFFFFFFFFFFFFFFFFFFFFFFFFFF3D
:1003D000FFFFFFFFFFFFFFFFFFFFFFFFFFFFFFFF2D
:1003E000FFFFFFFFFFFFFFFFFFFFFFFFFFFFFFFF1D
:1003F000FFFFFFFFFFFFFFFFFFFFFFFFFFFFFFFF0D
:10040000FFFFFFFFFFFFFFFFFFFFFFFFDEF9FFFF23
:1004100010B5054C237833B9044B13B10448AFF33E
:1004200000800123237010BDEC85FF1F0000000039
:10043000F809000008B5034B1BB103490348AFF3AB
:10044000008008BD00000000F085FF1FF8090000D3
:10045000C1B20D2000F062B80E4A38B513680E4DD7
:1004600043F4A2731360002401210D2000F03CF836
:10047000224623460133AB42FCD93AB184F0010055
:1004800044B2FFF7E5FF00221346F3E713460122CB
:10049000F0E700BF14B00440404B4C0008B50B4DD2
:1004A0002C462B68580301D500F012F82368590533
:1004B00001D500F00DF823681A0501D500F008F801
:1004C0002368DB04EDD500F003F8EAE7348004404C
:1004D00008B5FFF7E3FFFFFF014B10221A807047BA
:1004E000002005407047FFFF1C2813D80A4BC0EBC3
:1004F000C00003EB800001238268007B8340DBB2F5
:1005000021B111680B43136000207047106820EA86
:100510000303F8E701207047B00600001C280DD83F
:10052000094BC0EBC00003EB800001234268007B55
:100530008340DBB219B111680B4313607047116837
:1005400021EA0303F9E700BFB006000070B50D4EC5
:100550000D4D761BB61006D00024013455F8043B2F
:100560009847A642F9D1094E094D761B00F038FA9A
:10057000B61006D00024013455F8043B9847A64233
:10058000F9D170BDEC090000EC090000F40900008D
:10059000EC090000024B13B1024800F005B87047A7
:1005A00000000000B5050000002301461A46184669
:1005B00000F01EB838B50A4C0A4D641BA4100AD0CE
:1005C00004F18043013B05EB8305013C55F80439F8
:1005D0009847002CF9D1BDE8384000F00BBA00BFB5
:1005E0000000000000000000704700BF704700BF1F
:1005F0002DE9F8432B4D0646286898460F4691464C
:10060000FFF7F2FF284B1C68D4F84831002B3DD08F
:100610005A681F2A0DDC02F1010C16BB0232C3F826
:1006200004C0286843F82270FFF7E0FF0020BDE80F
:10063000F8831E4B7BB34FF4C870AFF300800346C2
:1006400048B3D4F848210021C0E900214FF0010C43
:10065000C4F848010A46C0F88811C0F88C11002E71
:10066000DCD003EB82010124C1F88890D3F8880123
:1006700094402043022EC3F88801C1F80881CDD1EF
:10068000D3F88C110C43C3F88C41C7E704F5A6736B
:10069000C4F84831BCE72868FFF7A8FF4FF0FF30E7
:1006A000C5E700BFE885FF1FDC090000000000006F
:1006B00050F00F4040F00F4054F00F401000000089
:1006C00000000000000000000000000050F00F409B
:1006D00040F00F4054F00F401100000000000000F7
:1006E0000000000000000000D0F00F40C0F00F40FC
:1006F000D4F00F40000000000000000000000000E7
:100700000000000010F00F4000F00F4014F00F4008
:100710000C000000000000000000000000000000CD
:1007200010F00F4000F00F4014F00F400D000000DB
:10073000000000000000000000000000D0F00F40AA
:10074000C0F00F40D4F00F40070000000000000090
:100750000000000000000000D0F00F40C0F00F408B
:10076000D4F00F4004000000000000000000000072
:1007700000000000D0F00F40C0F00F40D4F00F4058
:100780000200000000000000000000000000000067
:10079000D0F00F40C0F00F40D4F00F400300000035
:1007A00000000000000000000000000090F00F407A
:1007B00080F00F4094F00F400300000000000000A4
:1007C000000000000000000090F00F4080F00F409B
:1007D00094F00F4004000000000000000000000042
:1007E0000000000090F00F4080F00F4094F00F40A8
:1007F00006000000000000000000000000000000F3
:1008000090F00F4080F00F4094F00F400700000080
:1008100000000000000000000000000090F00F4009
:1008200080F00F4094F00F40050000000000000031
:100830000000000000000000D0F00F40C0F00F40AA
:10084000D4F00F4001000000000000000000000094
:100850000000000090F00F4080F00F4094F00F4037
:100860000000000000000000000000000000000088
:1008700050F00F4040F00F4054F00F4000000000D7
:1008800000000000000000000000000050F00F40D9
:1008900040F00F4054F00F40010000000000000045
:1008A000000000000000000050F00F4040F00F403A
:1008B00054F00F40030000000000000000000000A2
:1008C0000000000050F00F4040F00F4054F00F4087
:1008D0000200000000000000000000000000000016
:1008E000D0F00F40C0F00F40D4F00F4005000000E2
:1008F000000000000000000000000000D0F00F40E9
:10090000C0F00F40D4F00F400600000000000000CF
:10091000000000000000000090F00F4080F00F4049
:1009200094F00F40010000000000000000000000F3
:100930000000000090F00F4080F00F4094F00F4056
:1009400002000000000000000000000000000000A5
:1009500010F00F4000F00F4014F00F4005000000B1
:1009600000000000000000000000000050F00F40F8
:1009700040F00F4054F00F40130000000000000052
:10098000000000000000000010F10F4000F10F40D7
:1009900014F10F4001000000000000000000000002
:1009A0000000000090F00F4080F00F4094F00F40E6
:1009B000090000000000000000000000000000002E
:1009C00090F00F4080F00F4094F00F4008000000BE
:1009D000000000000000000000000000C081FF1FB8
:1009E000F8B500BFF8BC08BC9E46704795050000EE
:0409F00035040000CA
:0409F400F8B500BF93
:1009F80000000000AC84FF1F1485FF1F7C85FF1FCB
:100A080000000000000000000000000000000000DE
:100A180000000000000000000000000000000000CE
:100A280000000000000000000000000000000000BE
:100A380000000000000000000000000000000000AE
:100A4800000000000000000000000000000000009E
:100A5800000000000000000000000000000000008E
:100A6800000000000000000000000000000000007E
:100A7800000000000000000000000000000000006E
:100A8800000000000000000000000000000000005E
:100A9800000000000000000001000000000000004D
:100AA8000E33CDAB34126DE6ECDE05000B00000012
:100AB800000000000000000000000000000000002E
:100AC800000000000000000000000000000000001E
:100AD800000000000000000000000000000000000E
:100AE80000000000000000000000000000000000FE
:0C0E180000000000000000000886FF1F22
:00000001FF
