:1000000000800020BD010000D9040000A50400000C
:10001000A5040000A5040000A5040000A50400003C
:10002000A5040000A5040000A5040000D9040000F8
:10003000D9040000A5040000D9040000D904000080
:10004000D9040000D9040000D9040000D90400003C
:10005000D9040000D9040000D9040000D90400002C
:10006000D9040000D9040000D9040000D90400001C
:10007000D9040000D9040000D9040000D90400000C
:10008000D9040000D9040000D9040000D9040000FC
:10009000D9040000D9040000D9040000D9040000EC
:1000A000D9040000D9040000D9040000D9040000DC
:1000B000D9040000D9040000D9040000D9040000CC
:1000C000D9040000D9040000D9040000D9040000BC
:1000D000D9040000D9040000D9040000D9040000AC
:1000E000D9040000D9040000D9040000D90400009C
:1000F000D9040000D9040000D9040000D90400008C
:10010000D9040000D9040000D9040000D90400007B
:10011000D9040000D9040000D9040000D90400006B
:10012000D9040000D9040000D9040000D90400005B
:10013000D9040000D9040000D9040000D90400004B
:10014000D9040000D9040000D9040000D90400003B
:10015000D9040000D9040000D9040000D90400002B
:10016000D9040000D9040000D9040000D90400001B
:10017000D9040000D9040000D9040000D90400000B
:10018000D9040000D9040000D9040000D9040000FB
:10019000D9040000D9040000D9040000D9040000EB
:1001A000D9040000D9040000D9040000D9040000DB
:1001B000D9040000D9040000D9040000434B4CF2DC
:1001C000205210B51A804DF628121A8000BF00BFC9
:1001D00000F086F93E4B4FF010621A603D4A9A607B
:1001E0003D4ADA603D4A136813F4807301BF3C490D
:1001F0000B604FF4A85313603A4B1A78110748BFAD
:100200001A78394944BF42F008021A70374B2A2243
:100210001A70374A374B8B4250D3374B374A00213D
:10022000934250D3364A374C0023114654F82300EA
:1002300042F8230001336F2BF8D1334B334A80202F
:1002400003F8010B9342FBD1314B1960314B8A22E9
:100250001A70A3F5805324225A70A0221A709A793A
:100260009207FCD59A79D406FCD42B4B19469A797F
:1002700002F00C02082AFAD103221A7140225A71A4
:100280008B799806FCD5244B9A795206FCD5234AE3
:10029000234911600221516020221A701E4A93796D
:1002A00003F00C030C2BFAD11E4B1F4A1A6000F00E
:1002B0001FFA00F01BF900F0CFF8FEE752F8040F28
:1002C00043F8040BA7E743F8041BA9E70E200540F9
:1002D00030800440823F04000100002B10D0034016
:1002E00014D0034002D00740EC85FF1F00E0074018
:1002F000A80B0000C081FF1FEC85FF1F2C86FF1F8D
:100300000080FF1F0000000000E400E05FE400E068
:1003100008ED00E0005006400040064044800440E4
:100320000000030104800440C0100500FFFFFFFF30
:10033000FFFFFFFFFFFFFFFFFFFFFFFFFFFFFFFFCD
:10034000FFFFFFFFFFFFFFFFFFFFFFFFFFFFFFFFBD
:10035000FFFFFFFFFFFFFFFFFFFFFFFFFFFFFFFFAD
:10036000FFFFFFFFFFFFFFFFFFFFFFFFFFFFFFFF9D
:10037000FFFFFFFFFFFFFFFFFFFFFFFFFFFFFFFF8D
:10038000FFFFFFFFFFFFFFFFFFFFFFFFFFFFFFFF7D
:10039000FFFFFFFFFFFFFFFFFFFFFFFFFFFFFFFF6D
:1003A000FFFFFFFFFFFFFFFFFFFFFFFFFFFFFFFF5D
:1003B000FFFFFFFFFFFFFFFFFFFFFFFFFFFFFFFF4D
:1003C000FFFFFFFFFFFFFFFFFFFFFFFFFFFFFFFF3D
:1003D000FFFFFFFFFFFFFFFFFFFFFFFFFFFFFFFF2D
:1003E000FFFFFFFFFFFFFFFFFFFFFFFFFFFFFFFF1D
:1003F000FFFFFFFFFFFFFFFFFFFFFFFFFFFFFFFF0D
:10040000FFFFFFFFFFFFFFFFFFFFFFFFDEF9FFFF23
:1004100010B5054C237833B9044B13B10448AFF33E
:1004200000800123237010BDEC85FF1F0000000039
:10043000AC0B000008B5034B1BB103490348AFF3F5
:10044000008008BD00000000F085FF1FAC0B00001D
:10045000C1B20D2000F066B837B5114A136802AC7E
:1004600043F4A2731360002501210D2000F040F831
:1004700000F078F804F8015D01222146202000F008
:10048000D3F80122202120468DF8075000F0ACF867
:100490009DF80700FFF7DCFF284603B030BD00BF22
:1004A00014B0044008B50B4D2C462B68580301D5F9
:1004B00000F012F82368590501D500F00DF8236803
:1004C0001A0501D500F008F82368DB04EDD500F02B
:1004D00003F8EAE73480044008B5FFF7E3FFFFFFC5
:1004E000014B10221A807047002005407047FFFF23
:1004F0001C2813D80A4BC0EBC00003EB800001237B
:100500008268007B8340DBB221B111680B4313602A
:1005100000207047106820EA0303F8E701207047C5
:10052000540800001C280DD8094BC0EBC00003EB99
:10053000800001234268007B8340DBB219B111685F
:100540000B4313607047116821EA0303F9E700BF0A
:1005500054080000024A1378DB07FCD5704700BF3F
:10056000010002407FB51B4B6A4603F11006154699
:1005700018685968144603C40833B3422246F7D1B9
:10058000154E3278910706D4144B3278D2071ED418
:10059000013BFAD11BE0124A137813F0700318BF25
:1005A0001370104B80221A70002203F8032C3322A0
:1005B0001A710322DA7072B6094C45F00103204625
:1005C000984762B6237813F07003DDD0237004B02F
:1005D00070BD00BF800B000001000240410D030010
:1005E000000002400700024070B50E4B1B78DB078D
:1005F00004460D4602EB010601D4FFF7B3FFB6F542
:10060000006FA5EB040528BF4FF40066204605F1F6
:10061000A0522B18B34200D370BD13181B7800F8FA
:10062000013BF6E701000240B2F5006F70B50D46E0
:10063000164614462FD22C4B1B78DB0701D4FFF74C
:1006400091FFB6F5006F304628BF4FF40060831964
:10065000B3F5006F02D3C6F5006080B2234918E0FD
:1006600014F0030604F1A0532A7815D1032815D9F4
:100670002E1D1A682D68AA4207D00A7812F070025F
:1006800018BF0A701D60FFF765FF0434043880B29C
:1006900035460028E4D170BD022E13D1012811D0B7
:1006A000AE1C6D7842EA05221D88954207D00D7870
:1006B00015F0700518BF0D701A80FFF74BFF02345C
:1006C0000238E4E71E78964205F1010507D00E785E
:1006D00016F0700618BF0E701A70FFF73BFF013856
:1006E000013480B2D5E700BF0100024000000240A3
:1006F00070B50D4E0D4D761BB61006D0002401349A
:1007000055F8043B9847A642F9D1094E094D761B8E
:1007100000F040FAB61006D00024013455F8043B2E
:100720009847A642F9D170BDA00B0000A00B0000B5
:10073000A80B0000A00B0000024B13B1024800F010
:1007400005B870470000000059070000002301466B
:100750001A46184600F01EB838B50A4C0A4D641BFC
:10076000A4100AD004F18043013B05EB8305013C52
:1007700055F804399847002CF9D1BDE8384000F00D
:1007800013BA00BF0000000000000000704700BF67
:10079000704700BF2DE9F8432B4D06462868984660
:1007A0000F469146FFF7F2FF284B1C68D4F84831FA
:1007B000002B3DD05A681F2A0DDC02F1010C16BB3C
:1007C0000232C3F804C0286843F82270FFF7E0FF44
:1007D0000020BDE8F8831E4B7BB34FF4C870AFF325
:1007E0000080034648B3D4F848210021C0E9002125
:1007F0004FF0010CC4F848010A46C0F88811C0F84F
:100800008C11002EDCD003EB82010124C1F888900A
:10081000D3F8880194402043022EC3F88801C1F820
:100820000881CDD1D3F88C110C43C3F88C41C7E7B4
:1008300004F5A673C4F84831BCE72868FFF7A8FFA1
:100840004FF0FF30C5E700BFE885FF1F900B0000A9
:100850000000000050F00F4040F00F4054F00F40F7
:100860001000000000000000000000000000000078
:1008700050F00F4040F00F4054F00F4011000000C6
:10088000000000000000000000000000D0F00F4059
:10089000C0F00F40D4F00F40000000000000000046
:1008A000000000000000000010F00F4000F00F40BA
:1008B00014F00F400C0000000000000000000000D9
:1008C0000000000010F00F4000F00F4014F00F4047
:1008D0000D0000000000000000000000000000000B
:1008E000D0F00F40C0F00F40D4F00F4007000000E0
:1008F000000000000000000000000000D0F00F40E9
:10090000C0F00F40D4F00F400400000000000000D1
:100910000000000000000000D0F00F40C0F00F40C9
:10092000D4F00F40020000000000000000000000B2
:1009300000000000D0F00F40C0F00F40D4F00F4096
:1009400003000000000000000000000000000000A4
:1009500090F00F4080F00F4094F00F400300000033
:1009600000000000000000000000000090F00F40B8
:1009700080F00F4094F00F400400000000000000E1
:10098000000000000000000090F00F4080F00F40D9
:1009900094F00F400600000000000000000000007E
:1009A0000000000090F00F4080F00F4094F00F40E6
:1009B0000700000000000000000000000000000030
:1009C00090F00F4080F00F4094F00F4005000000C1
:1009D000000000000000000000000000D0F00F4008
:1009E000C0F00F40D4F00F400100000000000000F4
:1009F000000000000000000090F00F4080F00F4069
:100A000094F00F4000000000000000000000000013
:100A10000000000050F00F4040F00F4054F00F4035
:100A200000000000000000000000000000000000C6
:100A300050F00F4040F00F4054F00F400100000014
:100A400000000000000000000000000050F00F4017
:100A500040F00F4054F00F40030000000000000081
:100A6000000000000000000050F00F4040F00F4078
:100A700054F00F40020000000000000000000000E1
:100A800000000000D0F00F40C0F00F40D4F00F4045
:100A90000500000000000000000000000000000051
:100AA000D0F00F40C0F00F40D4F00F40060000001F
:100AB00000000000000000000000000090F00F4067
:100AC00080F00F4094F00F40010000000000000093
:100AD000000000000000000090F00F4080F00F4088
:100AE00094F00F4002000000000000000000000031
:100AF0000000000010F00F4000F00F4014F00F4015
:100B000005000000000000000000000000000000E0
:100B100050F00F4040F00F4054F00F401300000021
:100B200000000000000000000000000010F10F4075
:100B300000F10F4014F10F40010000000000000020
:100B4000000000000000000090F00F4080F00F4017
:100B500094F00F40090000000000000000000000B9
:100B60000000000090F00F4080F00F4094F00F4024
:100B7000080000000000000000000000000000006D
:100B80006FF07F030370037813F0800FFBD0704782
:100B9000C081FF1FF8B500BFF8BC08BC9E46704777
:080BA0003907000035040000D4
:040BA800F8B500BFDD
:100BAC0000000000AC84FF1F1485FF1F7C85FF1F15
:100BBC000000000000000000000000000000000029
:100BCC000000000000000000000000000000000019
:100BDC000000000000000000000000000000000009
:100BEC0000000000000000000000000000000000F9
:100BFC0000000000000000000000000000000000E9
:100C0C0000000000000000000000000000000000D8
:100C1C0000000000000000000000000000000000C8
:100C2C0000000000000000000000000000000000B8
:100C3C0000000000000000000000000000000000A8
:100C4C000000000000000000010000000000000097
:100C5C000E33CDAB34126DE6ECDE05000B0000005C
:100C6C000000000000000000000000000000000078
:100C7C000000000000000000000000000000000068
:100C8C000000000000000000000000000000000058
:100C9C000000000000000000000000000000000048
:0C0FCC0000000000000000000886FF1F6D
:00000001FF
